:1000000055C000000FC200006CC000006AC00000B4
:1000100068C0000066C0000064C0000062C000004C
:1000200060C000005EC000005CC000005AC000005C
:1000300058C0000056C0000054C0000052C000006C
:1000400050C000004EC000004CC000004AC000007C
:1000500048C0000046C0000044C0000042C000008C
:1000600040C000003EC000003CC000003AC000009C
:1000700038C0000036C0000034C0000032C00000AC
:1000800030C000002EC000002CC000002AC00000BC
:1000900028C0000026C0000024C0000022C00000CC
:1000A00020C000001EC000001CC0000011241FBEA4
:1000B000CFEFDAE0DEBFCDBF12E0A8E0B2E001C0D2
:1000C0001D92A930B107E1F712E0A0E0B1E0EEE245
:1000D000FDE002C005900D92A830B107D9F7B1D16B
:1000E00024C68ECFFC0171836083538342833583A2
:1000F00024830895FC017183608353834283358395
:1001000024830895DF92EF92FF920F931F938C0147
:10011000D42EDC011296ED91FC911397208181E0A1
:10012000E82EF12CC70114960C90149702C0880F8A
:10013000991F0A94E2F78095822380836F778D91CF
:100140009C9120D2F801808191816D2D1BD2D80124
:100150001296ED91FC911397808114960C9002C039
:10016000EE0CFF1C0A94E2F78E2980831F910F91F9
:10017000FF90EF90DF9008950F931F938C0162E240
:1001800040E4C0DFC80160E345E9BCDFC80162E3C9
:1001900044E0B8DFC80163E348E0B4DF1F910F918A
:1001A0000895EF92FF920F931F938C01DC0112963A
:1001B000ED91FC911397208191E0E92EF12CC7017C
:1001C00014960C90149702C0880F991F0A94E2F7B6
:1001D00080958223808360688D919C91D3D1F801B2
:1001E0008081918160E0CED1D8011296ED91FC9191
:1001F0001397908114960C9002C0EE0CFF1C0A9489
:10020000E2F79E2990831F910F91FF90EF90089540
:1002100061E3C7CF63E2C5DF282F30E044E03595C6
:1002200027954A95E1F723703070C9010895EF9240
:10023000FF920F931F938C017B0163E2B2DF482F83
:100240004F7C54E0EE0CFF1C5A95E1F74E29C80193
:1002500063E258DF1F910F91FF90EF900895EF92A6
:10026000FF920F931F938C017B0160E29ADF482F6E
:100270004F7064E0EE0CFF1C6A95E1F74E29C8014F
:1002800060E240DF1F910F91FF90EF900895CF93B0
:10029000DF93EC016FE085DF833311F080E011C064
:1002A000CE0160E247E02EDFCE0165E070E0D7DFEF
:1002B000CE0163E248E826DFCE0162E240E122DFC0
:1002C00081E0DF91CF910895A0E0B0E0E9E6F1E0B0
:1002D000F6C48C01EB015A013901DC011296ED9153
:1002E000FC911397208171E0E72EF12CC701149641
:1002F0000C90149702C0880F991F0A94E2F780951A
:10030000822380838D919C9168EE3CD1F80180819D
:10031000918160E037D1C82ED8018D919C9160E029
:1003200031D1982EF8018081918160E02BD1582E37
:10033000D8018D919C9160E025D1882EF8018081B3
:10034000918160E01FD1382ED8018D919C9160E0A1
:1003500019D1482ED8011296ED91FC911397808106
:1003600014960C9002C0EE0CFF1C0A94E2F78E2942
:100370008083C8014FDF833019F465E575E011C053
:10038000823019F460E070E10CC0813019F46EEF36
:100390007FE107C0882319F46CEF7FE302C061E0BE
:1003A00070E0DD2480E090E01FD27B018C01792D8C
:1003B00060E06C297D29882777FD8095982FBAD138
:1003C000A8019701E5D0688379838A839B83252DD3
:1003D00030E0782D60E0622B732B882777FD8095C5
:1003E000982FA8D1A8019701D3D0F501608371831C
:1003F00082839383232D30E0742D60E0622B732B76
:10040000882777FD8095982F95D1A8019701C0D0B6
:10041000D3016D937D938D939C931397CDB7DEB7E6
:10042000E1E169C41F920F920FB60F9211248F93CE
:1004300081E0809308028F910F900FBE0F901F9064
:100440001895A3E1B0E0E6E2F2E038C487B18FEF9F
:1004500087B91AB85A9A8AB1806F8AB98BB1806FFE
:100460008BB9CE01019688D0F8945098E89A809183
:100470006900836080936900E09A8E01025F1F4FDC
:10048000C801BE016F5F7F4F4BE250E024E030E0D7
:1004900031DEC801FCDE882329F48FEF9FEF6396DD
:1004A000E2E128C4C80162E070E0C1DEC80166E094
:1004B00070E0D5DEC80160DE789458EC252E312C32
:1004C0004EE0C42ED12CCC0EDD1E0F2EF0E0EF2E10
:1004D000F0E0FF2EF0E00F2FF0E01F2FF02D32E0C4
:1004E000432E512C4C0E5D1E26E0622E712C6C0E9C
:1004F0007D1E9AE0892E912C8C0E9D1E80EDA82EDB
:1005000087E0B82E80910802882369F0479A1092FC
:10051000080280E29EE4F1013197F1F70197D9F7E3
:100520004798C60175DEEA82FB820C831D83EE824A
:10053000FF8208871987EA86FB860C871D87C6011C
:10054000B201A3019401C0DE6A857B858C859D85FF
:1005500020E030E040E050E0C2D0181614F4469A93
:1005600001C04698C5010197F1F7CCCF87E084B967
:10057000289A81E58CBD089587E084B9289A81E5A1
:100580008CBD08956EBD0DB407FEFDCF8EB50895E8
:10059000A8E1B0E0EDECF2E099C369837A838B8344
:1005A0009C832D833E834F835887B9E0EB2EF12C3B
:1005B000EC0EFD1ECE010196B701AFD28E010F5E8B
:1005C0001F4FCE010596B801A8D22985223008F424
:1005D0007EC03989323010F4B8017CC08A859A898E
:1005E00089278A87243011F0223031F4231709F04B
:1005F0006EC060E071E06EC0343039F41D861E8636
:100600001F86188A1C861B8604C0323021F484E0C1
:100610008987B7015FC02B853C858B899C89281B06
:10062000390B3C872B87ED84FE840F851889AD88B4
:10063000BE88CF88D88CEA14FB040C051D0540F455
:10064000EE0CFF1C001F111F215030403C872B87F0
:1006500020E030E040E050E080E090E0A0E0B0E456
:1006600060E070E0EA14FB040C051D0540F0282B47
:10067000392B4A2B5B2BEA18FB080C091D09B69590
:10068000A79597958795EE0CFF1C001F111F6F5FB4
:100690007F4F6F31710531F7DA01C9018F779070A3
:1006A000A070B07080349105A105B10561F427FDFB
:1006B0000AC0E114F1040105110529F0205C3F4F47
:1006C0004F4F5F4F20782D873E874F87588BBE0155
:1006D000675F7F4FCB014CD16896EAE013C3A8E176
:1006E000B0E0E4E7F3E0F6C269837A838B839C830E
:1006F0002D833E834F83588789E0E82EF12CEC0E42
:10070000FD1ECE010196B70108D28E010F5E1F4F6C
:10071000CE010596B80101D28985823038F08989E9
:10072000823020F0C701B80170D201C08FEF689607
:10073000E6E0ECC2A8E0B0E0EFE9F3E0C8C29B015C
:10074000AC0183E08983DA01C9018827B7FD83956D
:100750009927AA27BB27B82E211531054105510538
:1007600019F482E0898339C08823A9F0203080E021
:10077000380780E0480780E8580729F460E070E017
:1007800080E09FEC2EC0EE24FF248701E21AF30ADA
:10079000040B150B02C079018A018EE1C82ED12C01
:1007A000DC82CB82ED82FE820F831887C801B701FD
:1007B00090D001971816190684F4082E04C0EE0C88
:1007C000FF1C001F111F0A94D2F7ED82FE820F83D7
:1007D0001887C81AD90ADC82CB82BA82CE01019668
:1007E000C7D02896E9E08FC2A8E0B0E0E9EFF3E0D7
:1007F0006DC27B018C01611571058105910519F4AC
:1008000082E089835FC083E089838EE1C82ED12C8A
:10081000DC82CB82ED82FE820F831887C801B7018C
:1008200058D0FC013197F7FF3BC0222733272E1BFE
:100830003F0B57016801022E04C0D694C794B794A9
:10084000A7940A94D2F740E050E060E070E081E0C5
:1008500090E0A0E0B0E004C0880F991FAA1FBB1F62
:100860002A95D2F70197A109B1098E219F21A023D2
:10087000B1230097A105B10521F041E050E060E00F
:1008800070E04A295B296C297D294D835E836F8343
:1008900078878EE190E08E1B9F0B9C838B8312C028
:1008A000309781F00E2E04C0EE0CFF1C001F111FAC
:1008B0000A94D2F7ED82FE820F831887CE1ADF0AE0
:1008C000DC82CB821A82CE01019652D02896EAE0D1
:1008D00019C2EF92FF920F931F937B018C0180E06E
:1008E000E81680E0F80681E0080780E0180788F441
:1008F0008FEFE816F1040105110531F028F088E0CA
:1009000090E0A0E0B0E017C080E090E0A0E0B0E0B0
:1009100012C080E0E81680E0F80680E0080781E079
:10092000180728F088E190E0A0E0B0E004C080E182
:1009300090E0A0E0B0E020E230E040E050E0281B92
:10094000390B4A0B5B0B04C016950795F794E79497
:100950008A95D2F7F701E85FFE4F8081281B3109A5
:1009600041095109C9011F910F91FF90EF9008951E
:10097000DF92EF92FF920F931F93FC01E480F580CA
:1009800006811781D1808081823048F480E090E038
:10099000A0E1B0E0E82AF92A0A2B1B2BA5C084307D
:1009A00009F49FC0823021F4EE24FF24870105C0A2
:1009B000E114F1040105110519F4E0E0F0E096C03E
:1009C000628173819FEF623879070CF05BC022E887
:1009D0003FEF261B370B2A3131052CF020E030E0A9
:1009E00040E050E02AC0B801A701022E04C076956D
:1009F0006795579547950A94D2F781E090E0A0E07B
:100A0000B0E004C0880F991FAA1FBB1F2A95D2F718
:100A10000197A109B1098E219F21A023B12300973D
:100A2000A105B10521F081E090E0A0E0B0E09A01DD
:100A3000AB01282B392B4A2B5B2BDA01C9018F77AD
:100A40009070A070B07080349105A105B10539F4A3
:100A500027FF09C0205C3F4F4F4F5F4F04C0215C10
:100A60003F4F4F4F5F4FE0E0F0E02030A0E03A070B
:100A7000A0E04A07A0E45A0710F0E1E0F0E07901B5
:100A80008A0127C06038710564F5FB01E158FF4F0A
:100A9000D801C7018F779070A070B0708034910535
:100AA000A105B10539F4E7FE0DC080E490E0A0E0B7
:100AB000B0E004C08FE390E0A0E0B0E0E80EF91EE3
:100AC0000A1F1B1F17FF05C016950795F794E7949B
:100AD000319687E016950795F794E7948A95D1F7B4
:100AE00005C0EE24FF248701EFEFF0E06E2F67953D
:100AF00066276795902F9F77D794DD24D7948E2F04
:100B00008695492F462B582F5D29B701CA011F91A1
:100B10000F91FF90EF90DF900895FC01DB01408181
:100B200051812281622F6F7770E0221F2227221FBE
:100B30009381892F880F822B282F30E0991F9927C6
:100B4000991F11969C93119721153105A9F541150F
:100B500051056105710511F482E037C082E89FEF0D
:100B600013969C938E9312979A01AB0167E0220F24
:100B7000331F441F551F6A95D1F783E08C930DC036
:100B8000220F331F441F551F12968D919C9113976E
:100B9000019713969C938E931297203080E038072C
:100BA00080E0480780E4580758F314962D933D934E
:100BB0004D935C93179708952F3F310579F44115B4
:100BC00051056105710519F484E08C93089564FF63
:100BD00003C081E08C9312C01C9210C02F5730408C
:100BE00013963C932E93129783E08C9387E0440FE7
:100BF000551F661F771F8A95D1F7706414964D9321
:100C00005D936D937C93179708951F93DC01FB010F
:100C10009C91923008F447C08081823008F443C030
:100C2000943051F411961C91843099F58181682F8C
:100C300070E0611B71093FC0843021F0923031F4C3
:100C40008230B9F18181882389F12DC011961C91E0
:100C500011978230F1F081811817D9F412962D91F5
:100C60003C911397828193818217930794F0281700
:100C70003907BCF014968D919D910D90BC91A02DDB
:100C80002481358146815781281739074A075B0738
:100C900018F4112341F00AC082179307A407B5077F
:100CA00040F4112319F061E070E005C06FEF7FEFB1
:100CB00002C060E070E0CB011F9108952F923F9237
:100CC0004F925F926F927F928F929F92AF92BF925C
:100CD000CF92DF92EF92FF920F931F93CF93DF9308
:100CE000CDB7DEB7CA1BDB0B0FB6F894DEBF0FBE65
:100CF000CDBF09942A88398848885F846E847D84B2
:100D00008C849B84AA84B984C884DF80EE80FD80B3
:100D10000C811B81AA81B981CE0FD11D0FB6F89429
:0E0D2000DEBF0FBECDBFED010895F894FFCFEA
:100D2E0000000000000000000001020203030303A4
:100D3E00040404040404040405050505050505055D
:100D4E00050505050505050506060606060606063D
:100D5E000606060606060606060606060606060625
:100D6E00060606060606060607070707070707070D
:100D7E0007070707070707070707070707070707F5
:100D8E0007070707070707070707070707070707E5
:100D9E0007070707070707070707070707070707D5
:100DAE0007070707070707070808080808080808BD
:100DBE0008080808080808080808080808080808A5
:100DCE000808080808080808080808080808080895
:100DDE000808080808080808080808080808080885
:100DEE000808080808080808080808080808080875
:100DFE000808080808080808080808080808080865
:100E0E000808080808080808080808080808080854
:100E1E000808080808080808080808080808080844
:080E2E0008080808080808087C
:00000001FF
