:1000000055C0000066C0000064C0000062C000006F
:1000100060C000005EC000005CC000005AC000006C
:1000200058C0000056C0000054C0000052C000007C
:1000300050C000004EC000004CC000004AC000008C
:1000400048C0000046C0000044C0000042C000009C
:1000500040C000003EC000003CC000003AC00000AC
:1000600038C0000036C0000034C0000032C00000BC
:1000700030C000002EC000002CC000002AC00000CC
:1000800028C0000026C0000024C0000022C00000DC
:1000900020C000001EC000001CC000001AC00000EC
:1000A00018C0000016C0000014C0000011241FBEBC
:1000B000CFEFDAE0DEBFCDBF12E0A0E0B1E0E8EDC7
:1000C000FBE002C005900D92A830B107D9F787D1A7
:1000D00081C596CFFC01718360835383428335834E
:1000E00024830895FC0171836083538342833583A5
:1000F00024830895DF92EF92FF920F931F938C0158
:10010000D42EDC011296ED91FC911397208181E0B1
:10011000E82EF12CC70114960C90149702C0880F9A
:10012000991F0A94E2F78095822380836F778D91DF
:100130009C91D7D1F801808191816D2DD2D1D801C8
:100140001296ED91FC911397808114960C9002C049
:10015000EE0CFF1C0A94E2F78E2980831F910F9109
:10016000FF90EF90DF900895EF92FF920F931F930F
:100170008C01DC011296ED91FC911397208191E0A6
:10018000E92EF12CC70114960C90149702C0880F29
:10019000991F0A94E2F780958223808360688D918D
:1001A0009C919FD1F8018081918160E09AD1D80122
:1001B0001296ED91FC911397908114960C9002C0C9
:1001C000EE0CFF1C0A94E2F79E2990831F910F9179
:1001D000FF90EF90089563E2C7DF282F30E044E0FE
:1001E000359527954A95E1F723703070C901089538
:1001F000EF92FF920F931F938C017B0163E2B4DFB8
:10020000482F4F7C54E0EE0CFF1C5A95E1F74E2925
:10021000C80163E26FDF1F910F91FF90EF90089587
:10022000EF92FF920F931F938C017B0160E29CDFA2
:10023000482F4F7064E0EE0CFF1C6A95E1F74E29E1
:10024000C80160E257DF1F910F91FF90EF90089572
:10025000CF93DF93EC016FE087DF8823A9F0CE0115
:1002600060E247E047DFCE0167E070E0D9DFCE0112
:1002700063E248E83FDFCE0162E240E13BDFCE01CE
:100280006FE140E837DF81E0DF91CF910895A0E092
:10029000B0E0ECE4F1E068C48C01EB015A013901F3
:1002A000DC011296ED91FC911397208171E0E72E0D
:1002B000F12CC70114960C90149702C0880F991F57
:1002C0000A94E2F78095822380838D919C9168EE59
:1002D00008D1F8018081918160E003D1C82ED80156
:1002E0008D919C9160E0FDD0982EF80180819181E4
:1002F00060E0F7D0582ED8018D919C9160E0F1D04C
:10030000882EF8018081918160E0EBD0382ED801F1
:100310008D919C9160E0E5D0482ED8011296ED9128
:10032000FC911397808114960C9002C0EE0CFF1C78
:100330000A94E2F78E298083C8014DDF833019F4D7
:1003400065E575E011C0823019F460E070E10CC021
:10035000813019F46EEF7FE107C0882319F46CEF48
:100360007FE302C061E070E0DD2480E090E091D1A5
:100370007B018C01792D60E06C297D2980E090E083
:1003800088D1A8019701B3D0688379838A839B833E
:10039000252D30E0782D60E0622B732B80E090E01B
:1003A00078D1A8019701A3D0F5016083718382837E
:1003B0009383232D30E0742D60E0622B732B80E05B
:1003C00090E067D1A801970192D0D3016D937D93FE
:1003D0008D939C931397CDB7DEB7E1E1E1C3A3E121
:1003E000B0E0E4EFF1E0C1C387B18FEF87B91AB88D
:1003F0005A9A8AB1806F8AB98BB1806F8BB98E019E
:100400000F5F1F4FC80167D03EE0E32EF12CEC0ECA
:10041000FD1EC701B8014BE250E024E030E062DE8F
:10042000C70116DF882329F48FEF9FEF6396E0E181
:10043000B8C3C70162E070E0DBDEC70162E070E0D4
:10044000EFDE0F2EF0E0AF2EF0E0BF2EF0E0CF2E6B
:10045000F0E0DF2EF02D270122E0622E712C6C0ED1
:100460007D1E96E0892E912C8C0E9D1E8AE0E82E32
:10047000F12CEC0EFD1E00E117E24A9B02C0479AE8
:1004800001C04798AA82BB82CC82DD82AE82BF8245
:10049000C886D986AA86BB86CC86DD86C201B30112
:1004A000A4019701F4DE6A817B818C819D812A857C
:1004B0003B854C855D85C2D0181614F4469A01C060
:1004C0004698C8010197F1F7D8CF87E084B9289AF8
:1004D00081E58CBD089587E084B9289A81E58CBDBB
:1004E00008956EBD0DB407FEFDCF8EB50895A8E149
:1004F000B0E0ECE7F2E03FC369837A838B839C83AF
:100500002D833E834F835887B9E0EB2EF12CEC0E00
:10051000FD1ECE010196B70155D28E010F5E1F4F11
:10052000CE010596B8014ED22985223008F47EC04E
:100530003989323010F4B8017CC08A859A898927BC
:100540008A87243011F0223031F4231709F06EC06D
:1005500060E071E06EC0343039F41D861E861F865F
:10056000188A1C861B8604C0323021F484E08987F7
:10057000B7015FC02B853C858B899C89281B390B73
:100580003C872B87ED84FE840F851889AD88BE8853
:10059000CF88D88CEA14FB040C051D0540F4EE0C42
:1005A000FF1C001F111F215030403C872B8720E08B
:1005B00030E040E050E080E090E0A0E0B0E460E0B7
:1005C00070E0EA14FB040C051D0540F0282B392BC4
:1005D0004A2B5B2BEA18FB080C091D09B695A79559
:1005E00097958795EE0CFF1C001F111F6F5F7F4FC3
:1005F0006F31710531F7DA01C9018F779070A07002
:10060000B07080349105A105B10561F427FD0AC0E1
:10061000E114F1040105110529F0205C3F4F4F4F13
:100620005F4F20782D873E874F87588BBE01675FCD
:100630007F4FCB01F2D06896EAE0B9C2A8E1B0E002
:10064000E3E2F3E09CC269837A838B839C832D83EE
:100650003E834F83588789E0E82EF12CEC0EFD1E77
:10066000CE010196B701AED18E010F5E1F4FCE01B4
:100670000596B801A7D18985823038F08989823002
:1006800020F0C701B80116D201C08FEF6896E6E0EE
:1006900092C2A8E0B0E0EEE4F3E06DC27B018C0111
:1006A000611571058105910519F482E089835FC0A8
:1006B00083E089838EE1C82ED12CDC82CB82ED824F
:1006C000FE820F831887C801B70158D0FC0131970B
:1006D000F7FF3BC0222733272E1B3F0B5701680132
:1006E000022E04C0D694C794B794A7940A94D2F764
:1006F00040E050E060E070E081E090E0A0E0B0E039
:1007000004C0880F991FAA1FBB1F2A95D2F7019713
:10071000A109B1098E219F21A023B1230097A10532
:10072000B10521F041E050E060E070E04A295B292A
:100730006C297D294D835E836F8378878EE190E0FD
:100740008E1B9F0B9C838B8312C0309781F00E2EE3
:1007500004C0EE0CFF1C001F111F0A94D2F7ED829B
:10076000FE820F831887CE1ADF0ADC82CB821A82C0
:10077000CE01019652D02896EAE019C2EF92FF927C
:100780000F931F937B018C0180E0E81680E0F80650
:1007900081E0080780E0180788F48FEFE816F1047D
:1007A0000105110531F028F088E090E0A0E0B0E00C
:1007B00017C080E090E0A0E0B0E012C080E0E81652
:1007C00080E0F80680E0080781E0180728F088E15B
:1007D00090E0A0E0B0E004C080E190E0A0E0B0E0F4
:1007E00020E230E040E050E0281B390B4A0B5B0B65
:1007F00004C016950795F794E7948A95D2F7F70108
:10080000E85FFE4F8081281B310941095109C90168
:100810001F910F91FF90EF900895DF92EF92FF925A
:100820000F931F93FC01E480F58006811781D1802E
:100830008081823048F480E090E0A0E1B0E0E82AD6
:10084000F92A0A2B1B2BA5C0843009F49FC08230E3
:1008500021F4EE24FF24870105C0E114F104010511
:10086000110519F4E0E0F0E096C0628173819FEF1A
:10087000623879070CF05BC022E83FEF261B370B8C
:100880002A3131052CF020E030E040E050E02AC071
:10089000B801A701022E04C0769567955795479534
:1008A0000A94D2F781E090E0A0E0B0E004C0880FA5
:1008B000991FAA1FBB1F2A95D2F70197A109B10959
:1008C0008E219F21A023B1230097A105B10521F01E
:1008D00081E090E0A0E0B0E09A01AB01282B392B39
:1008E0004A2B5B2BDA01C9018F779070A070B07032
:1008F00080349105A105B10539F427FF09C0205CBA
:100900003F4F4F4F5F4F04C0215C3F4F4F4F5F4FF2
:10091000E0E0F0E02030A0E03A07A0E04A07A0E4E1
:100920005A0710F0E1E0F0E079018A0127C0603851
:10093000710564F5FB01E158FF4FD801C7018F77BE
:100940009070A070B07080349105A105B10539F4A4
:10095000E7FE0DC080E490E0A0E0B0E004C08FE3CB
:1009600090E0A0E0B0E0E80EF91E0A1F1B1F17FF81
:1009700005C016950795F794E794319687E016958C
:100980000795F794E7948A95D1F705C0EE24FF24E4
:100990008701EFEFF0E06E2F679566276795902F40
:1009A0009F77D794DD24D7948E2F8695492F462B99
:1009B000582F5D29B701CA011F910F91FF90EF9049
:1009C000DF900895FC01DB01408151812281622F7B
:1009D0006F7770E0221F2227221F9381892F880FB3
:1009E000822B282F30E0991F9927991F11969C93ED
:1009F000119721153105A9F54115510561057105BD
:100A000011F482E037C082E89FEF13969C938E9397
:100A100012979A01AB0167E0220F331F441F551F45
:100A20006A95D1F783E08C930DC0220F331F441FCA
:100A3000551F12968D919C911397019713969C9335
:100A40008E931297203080E0380780E0480780E4DA
:100A5000580758F314962D933D934D935C93179735
:100A600008952F3F310579F4411551056105710550
:100A700019F484E08C93089564FF03C081E08C93A3
:100A800012C01C9210C02F57304013963C932E93E7
:100A9000129783E08C9387E0440F551F661F771FE2
:100AA0008A95D1F7706414964D935D936D937C9302
:100AB000179708951F93DC01FB019C91923008F475
:100AC00047C08081823008F443C0943051F41196BD
:100AD0001C91843099F58181682F70E0611B710948
:100AE0003FC0843021F0923031F48230B9F18181FD
:100AF000882389F12DC011961C9111978230F1F055
:100B000081811817D9F412962D913C911397828107
:100B100093818217930794F028173907BCF0149635
:100B20008D919D910D90BC91A02D248135814681A0
:100B30005781281739074A075B0718F4112341F03A
:100B40000AC082179307A407B50740F4112319F0D0
:100B500061E070E005C06FEF7FEF02C060E070E021
:100B6000CB011F9108952F923F924F925F926F9207
:100B70007F928F929F92AF92BF92CF92DF92EF922D
:100B8000FF920F931F93CF93DF93CDB7DEB7CA1BAE
:100B9000DB0B0FB6F894DEBF0FBECDBF09942A88D9
:100BA000398848885F846E847D848C849B84AA8481
:100BB000B984C884DF80EE80FD800C811B81AA810E
:100BC000B981CE0FD11D0FB6F894DEBF0FBECDBFD9
:080BD000ED010895F894FFCF38
:100BD80000000000000000000001020203030303FC
:100BE80004040404040404040505050505050505B5
:100BF8000505050505050505060606060606060695
:100C0800060606060606060606060606060606067C
:100C18000606060606060606070707070707070764
:100C2800070707070707070707070707070707074C
:100C3800070707070707070707070707070707073C
:100C4800070707070707070707070707070707072C
:100C58000707070707070707080808080808080814
:100C680008080808080808080808080808080808FC
:100C780008080808080808080808080808080808EC
:100C880008080808080808080808080808080808DC
:100C980008080808080808080808080808080808CC
:100CA80008080808080808080808080808080808BC
:100CB80008080808080808080808080808080808AC
:100CC800080808080808080808080808080808089C
:080CD8000808080808080808D4
:00000001FF
